{
  "contractName": "TupperCoin",
  "abi": [
    {
      "inputs": [],
      "name": "inr_to_tuppercoins",
      "outputs": [
        {
          "internalType": "uint256",
          "name": "",
          "type": "uint256"
        }
      ],
      "stateMutability": "view",
      "type": "function",
      "constant": true
    },
    {
      "inputs": [],
      "name": "max_tuppercoins",
      "outputs": [
        {
          "internalType": "uint256",
          "name": "",
          "type": "uint256"
        }
      ],
      "stateMutability": "view",
      "type": "function",
      "constant": true
    },
    {
      "inputs": [],
      "name": "total_tuppercoins_bought",
      "outputs": [
        {
          "internalType": "uint256",
          "name": "",
          "type": "uint256"
        }
      ],
      "stateMutability": "view",
      "type": "function",
      "constant": true
    },
    {
      "inputs": [
        {
          "internalType": "address",
          "name": "investor",
          "type": "address"
        }
      ],
      "name": "equity_in_tuppercoins",
      "outputs": [
        {
          "internalType": "uint256",
          "name": "",
          "type": "uint256"
        }
      ],
      "stateMutability": "view",
      "type": "function",
      "constant": true
    },
    {
      "inputs": [
        {
          "internalType": "address",
          "name": "investor",
          "type": "address"
        }
      ],
      "name": "equity_in_inr",
      "outputs": [
        {
          "internalType": "uint256",
          "name": "",
          "type": "uint256"
        }
      ],
      "stateMutability": "view",
      "type": "function",
      "constant": true
    },
    {
      "inputs": [
        {
          "internalType": "address",
          "name": "investor",
          "type": "address"
        },
        {
          "internalType": "uint256",
          "name": "inr_invested",
          "type": "uint256"
        }
      ],
      "name": "buy_tuppercoins",
      "outputs": [],
      "stateMutability": "nonpayable",
      "type": "function"
    },
    {
      "inputs": [
        {
          "internalType": "address",
          "name": "investor",
          "type": "address"
        },
        {
          "internalType": "uint256",
          "name": "tuppercoins_sold",
          "type": "uint256"
        }
      ],
      "name": "sell_tuppercoins",
      "outputs": [],
      "stateMutability": "nonpayable",
      "type": "function"
    }
  ],
  "bytecode": "0x6080604052620f4240600055600a600155600060025534801561002157600080fd5b50610750806100316000396000f3fe608060405234801561001057600080fd5b506004361061009a576000357c0100000000000000000000000000000000000000000000000000000000900480637e801691116100785780637e801691146101075780637eb51297146101255780638e00689614610143578063dcd32abe146101735761009a565b80630dc78af61461009f5780631d553d8e146100bb5780635cb74e8a146100eb575b600080fd5b6100b960048036038101906100b49190610510565b610191565b005b6100d560048036038101906100d09190610550565b610293565b6040516100e2919061058c565b60405180910390f35b61010560048036038101906101009190610510565b6102dc565b005b61010f61041c565b60405161011c919061058c565b60405180910390f35b61012d610422565b60405161013a919061058c565b60405180910390f35b61015d60048036038101906101589190610550565b610428565b60405161016a919061058c565b60405180910390f35b61017b610471565b604051610188919061058c565b60405180910390f35b80600360008473ffffffffffffffffffffffffffffffffffffffff1673ffffffffffffffffffffffffffffffffffffffff16815260200190815260200160002060008282546101e091906105d6565b92505081905550600a600360008473ffffffffffffffffffffffffffffffffffffffff1673ffffffffffffffffffffffffffffffffffffffff168152602001908152602001600020546102339190610639565b600460008473ffffffffffffffffffffffffffffffffffffffff1673ffffffffffffffffffffffffffffffffffffffff16815260200190815260200160002081905550806002600082825461028891906105d6565b925050819055505050565b6000600360008373ffffffffffffffffffffffffffffffffffffffff1673ffffffffffffffffffffffffffffffffffffffff168152602001908152602001600020549050919050565b80600054600254600154836102f1919061066a565b6102fb91906106c4565b111561030657600080fd5b600060015483610316919061066a565b905080600360008673ffffffffffffffffffffffffffffffffffffffff1673ffffffffffffffffffffffffffffffffffffffff168152602001908152602001600020600082825461036791906106c4565b92505081905550600a600360008673ffffffffffffffffffffffffffffffffffffffff1673ffffffffffffffffffffffffffffffffffffffff168152602001908152602001600020546103ba9190610639565b600460008673ffffffffffffffffffffffffffffffffffffffff1673ffffffffffffffffffffffffffffffffffffffff16815260200190815260200160002081905550806002600082825461040f91906106c4565b9250508190555050505050565b60005481565b60015481565b6000600460008373ffffffffffffffffffffffffffffffffffffffff1673ffffffffffffffffffffffffffffffffffffffff168152602001908152602001600020549050919050565b60025481565b600080fd5b600073ffffffffffffffffffffffffffffffffffffffff82169050919050565b60006104a78261047c565b9050919050565b6104b78161049c565b81146104c257600080fd5b50565b6000813590506104d4816104ae565b92915050565b6000819050919050565b6104ed816104da565b81146104f857600080fd5b50565b60008135905061050a816104e4565b92915050565b6000806040838503121561052757610526610477565b5b6000610535858286016104c5565b9250506020610546858286016104fb565b9150509250929050565b60006020828403121561056657610565610477565b5b6000610574848285016104c5565b91505092915050565b610586816104da565b82525050565b60006020820190506105a1600083018461057d565b92915050565b7f4e487b7100000000000000000000000000000000000000000000000000000000600052601160045260246000fd5b60006105e1826104da565b91506105ec836104da565b9250828210156105ff576105fe6105a7565b5b828203905092915050565b7f4e487b7100000000000000000000000000000000000000000000000000000000600052601260045260246000fd5b6000610644826104da565b915061064f836104da565b92508261065f5761065e61060a565b5b828204905092915050565b6000610675826104da565b9150610680836104da565b9250817fffffffffffffffffffffffffffffffffffffffffffffffffffffffffffffffff04831182151516156106b9576106b86105a7565b5b828202905092915050565b60006106cf826104da565b91506106da836104da565b9250827fffffffffffffffffffffffffffffffffffffffffffffffffffffffffffffffff0382111561070f5761070e6105a7565b5b82820190509291505056fea26469706673582212200c6812c5064e2c278894ae7c5396a38a13b2ea097f11f26d53c846dae657ddca64736f6c634300080b0033",
  "immutableReferences": {},
  "source": "pragma solidity ^0.8.11;\r\ncontract TupperCoin{\r\n    uint public max_tuppercoins = 1000000;\r\n    uint public inr_to_tuppercoins = 10;\r\n    uint public total_tuppercoins_bought = 0;\r\n\r\n    mapping(address => uint) equity_tuppercoins;\r\n    mapping(address => uint) equity_inr;\r\n\r\n    modifier can_buy_tuppercoins(uint inr_invested){\r\n        require (inr_invested*inr_to_tuppercoins + total_tuppercoins_bought <= max_tuppercoins);\r\n        _;\r\n    }\r\n\r\n    function equity_in_tuppercoins(address investor) external view returns(uint){\r\n        return equity_tuppercoins[investor];\r\n    }\r\n\r\n    function equity_in_inr(address investor) external view returns(uint){\r\n        return equity_inr[investor];\r\n    }\r\n\r\n    function buy_tuppercoins(address investor,uint inr_invested) external\r\n    can_buy_tuppercoins(inr_invested){\r\n        uint tuppercoins_bought = inr_invested * inr_to_tuppercoins;\r\n        equity_tuppercoins[investor] += tuppercoins_bought;\r\n        equity_inr[investor] = equity_tuppercoins[investor] / 10;\r\n        total_tuppercoins_bought += tuppercoins_bought;\r\n    }\r\n\r\n    function sell_tuppercoins(address investor,uint tuppercoins_sold) external {\r\n        equity_tuppercoins[investor] -= tuppercoins_sold;\r\n        equity_inr[investor] = equity_tuppercoins[investor] / 10;\r\n        total_tuppercoins_bought -= tuppercoins_sold;\r\n    }\r\n\r\n}",
  "sourcePath": "D:\\Projects\\Flutter\\hello_world_dapp\\contracts\\TupperCoin.sol",
  "compiler": {
    "name": "solc",
    "version": "0.8.11+commit.d7f03943.Emscripten.clang"
  },
  "schemaVersion": "3.4.5",
  "updatedAt": "2022-03-08T18:02:53.070Z",
  "networkType": "ethereum",
  "devdoc": {
    "kind": "dev",
    "methods": {},
    "version": 1
  },
  "userdoc": {
    "kind": "user",
    "methods": {},
    "version": 1
  }
}